:020000041A00E0
:10000000008000104120001AF501001AFD01001ABD
:100010000502001A0D02001A1502001A0000000065
:100020000000000000000000000000004D05001A64
:100030002502001A00000000E506001A3D07001A1C
:100040002D02001A2D02001A2D02001A00000000D5
:100050002D02001A2D02001A2D02001A2D02001A7C
:100060002D02001A2D02001A2D02001A2D02001A6C
:100070002D02001A2D02001A2D02001A2D02001A5C
:100080002D02001A2D02001A2D02001A2D02001A4C
:100090002D02001A2D02001A2D02001A2D02001A3C
:1000A0002D02001A2D02001A2D02001A2D02001A2C
:1000B0002D02001A2D02001A2D02001A2D02001A1C
:1000C0002D02001A2D02001A2D02001A2D02001A0C
:1000D0002D02001A2D02001A2D02001A2D02001AFC
:1000E0002D02001A2D02001A2D02001A2D02001AEC
:1000F000000000002D02001A2D02001A2D02001A25
:10010000000000002D02001A2D02001A2D02001A14
:100110002D02001AA025001A000000108C0000001B
:10012000A025001A0000081000000000A025001AF9
:100130000000002000000000A025001A0080002020
:1001400000000000A025001A00C0002000000000F0
:100150008C00001068110000000008100000000072
:1001600000000020000000000080002000000000CF
:1001700000C000200000000080B489B000AFF8602B
:10018000B9607A60BB68FB61FB68BB6100237B617F
:100190000AE0FB691A1DFA61BA69111DB96112689A
:1001A0001A607B6904337B617A697B689A42F0D379
:1001B0002437BD465DF8047B704700BF80B485B02E
:1001C00000AF786039607B68FB600023BB6007E0AC
:1001D000FB681A1DFA6000221A60BB680433BB601A
:1001E000BA683B689A42F3D31437BD465DF8047B86
:1001F000704700BF80B400AFFEE700BF80B400AF1F
:10020000FEE700BF80B400AFFEE700BF80B400AFE0
:10021000FEE700BF80B400AFFEE700BF80B400AFD0
:10022000FEE700BF80B400AFFEE700BF80B400AFC0
:10023000FEE700BFFFFFFFFFFFFFFFFFFFFFFFFF26
:10024000FFFFFFFFFFFFFFFFFFFFFFFFFFFFFFFFBE
:10025000FFFFFFFFFFFFFFFFFFFFFFFFFFFFFFFFAE
:10026000FFFFFFFFFFFFFFFFFFFFFFFFFFFFFFFF9E
:10027000FFFFFFFFFFFFFFFFFFFFFFFFFFFFFFFF8E
:10028000FFFFFFFFFFFFFFFFFFFFFFFFFFFFFFFF7E
:10029000FFFFFFFFFFFFFFFFFFFFFFFFFFFFFFFF6E
:1002A000FFFFFFFFFFFFFFFFFFFFFFFFFFFFFFFF5E
:1002B000FFFFFFFFFFFFFFFFFFFFFFFFFFFFFFFF4E
:1002C000FFFFFFFFFFFFFFFFFFFFFFFFFFFFFFFF3E
:1002D000FFFFFFFFFFFFFFFFFFFFFFFFFFFFFFFF2E
:1002E000FFFFFFFFFFFFFFFFFFFFFFFFFFFFFFFF1E
:1002F000FFFFFFFFFFFFFFFFFFFFFFFFFFFFFFFF0E
:1003000080B500AF01F068FA01F03AFA80BD00BF95
:1003100080B584B000AF7860124B64221A604FF44D
:100320007A73FB6000F04AFC0346BB6005200121A4
:1003300001F0B8F90B4B1B6807F10802104619468B
:1003400000F0E4FA0520002101F0ACF9054B1B6830
:10035000FA68D31A07F108021046194600F0D6FAD7
:10036000E0E700BFE811001080B584B000AF78600E
:100370000023FB73FB7B012B17D0032B21D0002B19
:1003800000D036E0032001F0DBF90346012B08D151
:10039000002000F07FF80123FB73142000F016FB0F
:1003A00027E0642000F012FB23E0032001F0C8F9ED
:1003B0000346012B02D10323FB731AE00023FB73D6
:1003C00017E0032001F0BCF90346012B10D000F028
:1003D00055F80346B3F57A7F03D200F04FF8034691
:1003E00001E040F2E733034A13600023FB73FFE7A9
:1003F00000BFBFE7E811001080B584B004AFFFF77D
:100400007FFF012300930023019300230293002325
:1004100003930B480B498022002300F0C7F9012306
:1004200000930023019300230293002303930648C3
:1004300006498022002300F0B9F900F0F9FAFEE73E
:100440001103001A3424001A6903001A4024001A08
:1004500080B500AF00F038F9FEE700BF80B400AF10
:1004600030BFBD465DF8047B704700BF80B582B0E9
:1004700000AF7860396000F027F9FEE780B400AF84
:10048000034B1B681846BD465DF8047B704700BFF0
:10049000EC11001080B483B000AF7860034A7B6831
:1004A00013600C37BD465DF8047B7047EC110010FB
:1004B00080B500AFFFF7E2FFFFF7E0FF034601332F
:1004C0001846FFF7E7FF80BD80B485B000AFF86045
:1004D000B9607A60FB68043BFB60FB684FF0807298
:1004E0001A60FB68043BFB60BA68FB681A60FB6833
:1004F000043BFB600C4AFB681A60FB68143BFB6022
:100500007A68FB681A60FB68043BFB60FB686FF06D
:1005100002021A60FB68203BFB60FB681846143738
:10052000BD465DF8047B70472D05001A80B500AF0D
:10053000054B1B68B3F1FF3F02D000F0C5F8FEE7A2
:1005400000F0C2F8FEE700BF00000010064B19687B
:100550000868B0E8F04F80F30988BFF36F8F4FF061
:10056000000080F31188704794000010054800686F
:10057000006880F3088862B6BFF34F8FBFF36F8FB8
:1005800000DF00BF08ED00E080B584B000AF2C4B69
:10059000FB60FB681B78DBB2BB60FB68FF221A7054
:1005A000FB681B78DBB2FB71FB79DBB223F05F03E6
:1005B000DAB2244B1A70244B07221A6009E0224B4E
:1005C0001B68013B204A1360FB79DBB25B00DBB2A6
:1005D000FB71FB79DBB2DBB25BB2002BEFDB1A4BBA
:1005E0001B681B02184A1360174B1B6803F4E06377
:1005F000154A1360BB68DAB2FB681A70134A134BD2
:100600001B6843F078731360104A104B1B6843F06B
:100610006043136000F0A6F80D4B00221A6000F052
:10062000BBF80C4A0B4B1B6843F040431360FFF7C9
:100630009DFFFFF77BFF002318461037BD4680BDA6
:1006400000E400E08C0000109000001020ED00E0BD
:100650000000001034EF00E080B400AF054B4FF015
:1006600080521A60BFF34F8FBFF36F8FBD465DF8A6
:10067000047B704704ED00E080B500AF00F024F883
:10068000044B1B680133034A1360BFF34F8FBFF362
:100690006F8F80BD0000001080B500AF094B1B6854
:1006A000002B02D100F010F8FEE7064B1B68013B5F
:1006B000044A1360034B1B68002B02D1002000F09A
:1006C0000DF880BD00000010EFF311804FF0A00185
:1006D00081F3118870470023184600BF80F311880A
:1006E000704700BFEFF30980BFF36F8F124B1A689A
:1006F0001EF0100F08BF20ED108A20E9F04F1060A7
:100700004DF8043D4FF0A00080F3118800F028FB65
:100710004FF0000080F3118808BC19680868B0E841
:10072000F04F1EF0100F08BFB0EC108A80F309885C
:10073000BFF36F8F704700BF9400001080B500AF0B
:10074000FFF7C2FF00F04CFA0346002B03D0044B26
:100750004FF080521A600020FFF7C0FF80BD00BF3D
:1007600004ED00E080B400AF074A084B1B6808495D
:10077000A1FB03139B09013B1360064B07221A6080
:10078000BD465DF8047B704714E000E0F0110010F6
:10079000D34D621010E000E0DFF80C00016841F476
:1007A000700101607047000088ED00E080B58AB0FC
:1007B00002AFF860B9603B601346FB80FB68002B1A
:1007C00002D1FFF781FFFEE7BB6A072B02D9FFF7D3
:1007D0007BFFFEE7FB881846396B00F041FCB861EF
:1007E000BB69002B6ED0BB691A6BFB8803F1804399
:1007F000013B9B0013447B617B6923F007037B6112
:100800007B6903F00703002B02D0FFF75DFFFEE7D3
:10081000FB880093B869B968BA6A7B6B00F02AFB61
:100820007869F9683A68FFF74FFE0246BB691A60BB
:10083000FB6A002B02D0FB6ABA691A60FFF71CFF43
:100840002C4B1B6801332B4A13602B4B1B68002B6E
:1008500009D1294ABB691360264B1B68012B0FD1B4
:1008600000F050FB0CE0254B1B68002B08D1224BFD
:100870001B68DA6ABB6A9A4202D81F4ABB691360D6
:100880001F4B1B6801331E4A1360BB69DA6A1D4B9C
:100890001B689A4203D9BB69DB6A1A4A1360BB69B9
:1008A000DA6A13469B0013449B00174A1A44BB693B
:1008B00004331046194600F057FD0123FB61FFF792
:1008C000EBFE02E04FF0FF33FB61FB69012B0BD124
:1008D0000A4B1B68002B07D0074B1B68DA6ABB6A00
:1008E0009A4201D2FFF7B8FEFB6918462037BD4691
:1008F00080BD00BFA801001094000010B4010010DA
:10090000C4010010B00100109800001080B586B03E
:1009100000AF7860396000237B617B68002B02D1D7
:10092000FFF7D2FEFEE73B68002B02D1FFF7CCFEBB
:10093000FEE7234B1B68002B02D0FFF7C5FEFEE746
:1009400000F0A8F81F4B1B683B617B681A683B6886
:100950001344FB607B681A683B699A420BD97B6839
:100960001A68FB689A4211D9FA683B699A420DD914
:1009700001237B610AE07B681A68FB689A4203D80E
:10098000FA683B699A4201D901237B617B68FA6866
:100990001A607B69002B08D00B4B1B680433184688
:1009A00000F03EFDF86800F025FB00F081F8B8602B
:1009B000BB68002B01D1FFF74FFE1837BD4680BD45
:1009C000C8010010AC0100109400001080B584B084
:1009D00000AF78600023FB607B68002B19D0114BBF
:1009E0001B68002B02D0FFF76FFEFEE700F052F805
:1009F0000D4B1A687B681344BB600C4B1B680433B7
:100A0000184600F00DFDB86800F0F4FA00F050F858
:100A1000F860FB68002B01D1FFF71EFE1037BD46C2
:100A200080BD00BFC8010010AC0100109400001090
:100A300080B586B004AF0023009300230193002308
:100A40000293002303930F480F4980220023FFF7EE
:100A5000ADFE78607B68012B0AD1FFF735FE0B4BAA
:100A600001221A600A4B00221A60FFF78DFD05E093
:100A70007B68002B02D1FFF727FEFEE70837BD4653
:100A800080BD00BF510E001A5024001AB40100109E
:100A9000AC01001080B400AF044B1B680133034A63
:100AA0001360BD465DF8047B704700BFC8010010AD
:100AB00080B582B000AF00237B60384B1B68002BF1
:100AC00002D1FFF701FEFEE7FFF7D6FD334B1B68AF
:100AD000013B324A1360314B1B68002B56D1304B1F
:100AE0001B68002B52D02FE02E4BDB68DB683B608D
:100AF0003B681833184600F093FC3B6804331846F3
:100B000000F08EFC3B68DA6A274B1B689A4203D9D7
:100B10003B68DB6A244A13603B68DA6A13469B0031
:100B200013449B00214A1A443B680433104619467B
:100B300000F01AFC3B68DA6A1D4B1B68DB6A9A42BC
:100B400002D31C4B01221A60164B1B68002BCBD121
:100B5000194B1B68002B11D00CE000F041F8034644
:100B6000002B02D0134B01221A60134B1B68013B70
:100B7000114A1360104B1B68002BEED10D4B1B6804
:100B8000012B03D101237B60FFF766FDFFF784FD96
:100B90007B6818460837BD4680BD00BFC8010010FD
:100BA000A801001068010010B001001098000010AA
:100BB00094000010BC010010B801001080B582B094
:100BC00000AFFFF759FD054B1B687B60FFF764FD25
:100BD0007B6818460837BD4680BD00BFAC010010D9
:100BE00080B586B000AF00237B61524B1B68002BA1
:100BF00040F08D80504B1B6801334F4A13604E4BC1
:100C00001B683B613B69002B18D14C4B1B681B6870
:100C1000002B02D0FFF758FDFEE7484B1B68FB6036
:100C2000474B1B68454A1360454AFB681360454BB8
:100C30001B680133434A136000F054FA424B1B68AF
:100C40003A699A424ED33D4B1B681B68002B01D179
:100C5000012300E00023002B04D03B4B4FF0FF3278
:100C60001A603FE0354B1B68DB68DB68BB60BB6824
:100C70005B687B603A697B689A4203D2324A7B6840
:100C800013602FE0BB680433184600F0C9FBBB6853
:100C90009B6A002B04D0BB681833184600F0C0FBD9
:100CA000BB68DA6A294B1B689A4203D9BB68DB6AC6
:100CB000264A1360BB68DA6A13469B0013449B0004
:100CC000234A1A44BB6804331046194600F04CFB13
:100CD000BB68DA6A1F4B1B68DB6A9A4201D30123A7
:100CE0007B61B0E71B4B1B68DA6A194913469B000E
:100CF00013449B000B441B68012B01D901237B612A
:100D0000154B1B68002B09D1FFF7D2FB06E0124BF5
:100D10001B680133104A1360FFF7CAFB0F4B1B68B7
:100D2000002B01D001237B617B6918461837BD4633
:100D300080BD00BFC8010010AC01001060010010B0
:100D400064010010C001001004000010B001001088
:100D50009800001094000010B8010010BC010010B1
:100D600080B582B000AF344B1B68002B03D0334BEF
:100D700001221A605DE0314B00221A60304B1B6883
:100D80001A682F4B1B681B6B9A4208D82C4B1A68A9
:100D90002B4B1B68343310461946FFF767FB284B73
:100DA0001B681B6B18462749142201F02BFB0346D6
:100DB000002B08D0224B1A68214B1B683433104695
:100DC0001946FFF753FB0BE01F4B1B68002B02D1AA
:100DD000FFF77AFCFEE71C4B1B68013B1A4A1360C5
:100DE000194B1A68194913469B0013449B000B4486
:100DF0001B68002BE8D0144B1A6813469B00134461
:100E00009B00124A13447B607B685B685A687B686E
:100E10005A607B685A687B6808339A4204D17B68C1
:100E20005B685A687B685A607B685B68DB68044A69
:100E300013600837BD4680BDC8010010BC0100101A
:100E4000940000105824001AB001001098000010FF
:100E500080B582B000AF786000F092F8044B1B6858
:100E6000012B01D9FFF7F8FBFFF7F8FAF4E700BF11
:100E70009800001080B586B000AFF860B9607A6065
:100E80003B6000237B6113E0BA687B6913441978E7
:100E9000FA687B69134430330A461A71BA687B6971
:100EA00013441B78002B00D105E07B6901337B6183
:100EB0007B69092BE8D9FB68002283F83D207B6819
:100EC000072B01D907237B60FB687A68DA62FB682D
:100ED0007A681A64FB680433184600F039FAFB6834
:100EE0001833184600F034FAFB68FA681A617B6818
:100EF000C3F10802FB689A61FB68FA685A62183706
:100F0000BD4680BD80B582B000AF00237B600CE0A1
:100F10007A6813469B0013449B00114A13441846F9
:100F200000F0F6F97B6801337B607B68072BEFD913
:100F30000C4800F0EDF90C4800F0EAF90B4800F01D
:100F4000E7F90B4800F0E4F90A4800F0E1F90A4B30
:100F5000044A1A60094B044A1A600837BD4680BD2E
:100F600098000010380100104C01001068010010BA
:100F70007C01001094010010600100106401001059
:100F800080B582B000AF28E0FFF784FD164B1B68E8
:100F9000002B0CBF01230023DBB27B60FFF788FD31
:100FA0007B68002B19D1FFF767FB0F4BDB68DB6811
:100FB0003B603B680433184600F032FA0B4B1B6869
:100FC000013B0A4A13600A4B1B68013B084A136045
:100FD000FFF762FB386800F075F8054B1B68002BC3
:100FE000D2D10837BD4680BD7C010010A801001099
:100FF0009001001080B582B000AF7860134B1B6881
:101000007A685A60124B1B687A689A4209D2114B6F
:101010001A680E4B1B6804331046194600F0C8F9D5
:1010200010E00D4B1A68094B1B6804331046194633
:1010300000F0BEF9094B1B687A689A4202D2074A4F
:101040007B6813600837BD4680BD00BF9400001068
:10105000AC010010640100106001001004000010D9
:1010600080B584B000AF03463960FB80442000F0B7
:101070005DF8F860FB68002B1FD03B68002B06D1A1
:10108000FB889B00184600F051F8034600E03B68DF
:10109000FA681363FB681B6B002B05D1F86800F03E
:1010A000D7F80023FB6008E0FB681A6BFB889B0005
:1010B0001046A5211A4601F0B5F9FB68184610370D
:1010C000BD4680BD80B582B000AF78607B681B6B89
:1010D000184600F0BDF8786800F0BAF80837BD4649
:1010E00080BD00BF80B483B000AF0E4B1B681B688F
:1010F000002B01D1012300E00023002B04D00A4B78
:101100004FF0FF321A6008E0064B1B68DB68DB68B3
:101110007B607B685B68044A13600C37BD465DF8F2
:10112000047B7047600100100400001080B588B097
:1011300000AF786000237B61FFF7ACFC404B1B687D
:10114000002B04D100F0BCF83D4B01221A607B68F3
:10115000002B0ED008231A467B6813447B607B6803
:1011600003F00703002B04D07B6823F00703083348
:101170007B607B68002B57D07B6840F6F772934208
:1011800052D8304BBB612F4B1B68FB6104E0FB69FD
:10119000BB61FB691B68FB61FB695A687B689A420B
:1011A00003D2FB691B68002BF1D1FB69264A9342ED
:1011B0003AD0BB691B68082213447B61FB691A683B
:1011C000BB691A60FB695A687B68D31A082252000F
:1011D000934222D9FA697B681344FB60FB695A6821
:1011E0007B68D21AFB685A60FB697A685A60FB68B0
:1011F0005B68BB60134B3B6102E03B691B683B6172
:101200003B691B685A68BB689A42F6D33B691A6807
:10121000FB681A603B69FA681A600C4B1A68FB6934
:101220005B68D31A094A1360FFF742FC7B69002B05
:1012300001D1FFF70DF97B6918462037BD4680BD07
:10124000DC110010CC110010D411001008000010A7
:1012500080B586B000AF78607B683B617B68002B0F
:1012600027D008235B423A6913443B613B69FB602A
:10127000FFF710FCFB685B68BB600F4B7B6102E013
:101280007B691B687B617B691B685A68BB689A42F3
:10129000F6D37B691A68FB681A607B69FA681A6082
:1012A000FB685A68054B1B681344044A1360FFF738
:1012B000FFFB1837BD4680BDCC11001008000010A0
:1012C00080B483B000AF0F4B23F007037B600E4A5E
:1012D0007B6813600C4B00225A600C4B40F6F8728E
:1012E0005A600A4B00221A607B683B603B6840F6FC
:1012F000F8725A603B68054A1A600C37BD465DF8C3
:10130000047B7047D4010010CC110010D4110010E0
:1013100080B483B000AF78607B6803F108027B681B
:101320005A607B684FF0FF329A607B6803F10802D5
:101330007B68DA607B6803F108027B681A617B686E
:1013400000221A600C37BD465DF8047B704700BF71
:1013500080B483B000AF78607B6800221A610C37DC
:10136000BD465DF8047B704780B485B000AF7860FF
:1013700039607B685B68FB603B68FA685A60FB68B1
:101380009A683B689A60FB689B683A685A60FB6899
:101390003A689A603B687A681A617B681B685A1CD5
:1013A0007B681A601437BD465DF8047B704700BF48
:1013B00080B485B000AF786039603B681B68BB6063
:1013C000BB68B3F1FF3F03D17B681B69FB600CE096
:1013D0007B680833FB6002E0FB685B68FB60FB68CE
:1013E0005B681A68BB689A42F6D9FB685A683B6822
:1013F0005A603B685B683A689A603B68FA689A6032
:10140000FB683A685A603B687A681A617B681B68B7
:101410005A1C7B681A601437BD465DF8047B704720
:1014200080B485B000AF78607B681B69FB607B6827
:101430005B687A6892689A607B689B687A68526891
:101440005A60FB685A687B689A4203D17B689A6845
:10145000FB685A607B6800221A61FB681B685A1E91
:10146000FB681A60FB681B6818461437BD465DF8B8
:10147000047B704780B483B000AF0346FB710B461A
:10148000BB711346BB800648F979BB79BA8849011C
:101490000B4440F823200C37BD465DF8047B7047B1
:1014A0000060084090B583B000AF0446084611467E
:1014B0001A462346FB710346BB710B46BB8013469D
:1014C000FB70FB789AB2BB8813439BB2F979BA7967
:1014D000084611461A46FFF7CDFF0C37BD4690BDB2
:1014E00080B483B000AF7860064A064BD3F82C3145
:1014F00043F00403C2F82C310C37BD465DF8047B81
:10150000704700BF0030044080B483B000AF786003
:10151000084611461A460346FB700B46BB7013463D
:101520007B70F978BB7878787A6849010B4413446A
:1015300002461A700C37BD465DF8047B704700BF49
:1015400080B485B000AFF860B9601346FB71FB79D9
:10155000FA68B96849010B4413441B78DBB2002BCD
:1015600014BF01230023DBB218461437BD465DF8D3
:10157000047B704780B483B000AF78600B46FB708B
:101580001346BB70FA78F9787B6801F5006153F86F
:101590002110BB78012000FA03F319437B6802F5A0
:1015A000006243F822100C37BD465DF8047B70479B
:1015B00080B485B000AFF8600B467A60FB72FA7AAF
:1015C000FB6802F50A62796843F822101437BD46B9
:1015D0005DF8047B704700BF80B500AF022000219A
:1015E00000220423FFF75EFF0220012100220423D2
:1015F000FFF758FF0220022100220423FFF752FFC9
:1016000002200A2100220023FFF74CFF02200B21B9
:1016100000220023FFF746FF02200C2100220023B6
:10162000FFF740FF1E4805210722012300F074FD4B
:101630001B4800214FF48042012300F06DFD184843
:1016400001214FF4C052012300F066FD144805212A
:101650000722FFF7ADFF124800214FF48042FFF749
:10166000A7FF0F4801214FF4C052FFF7A1FF002050
:10167000002100F017F80120002100F013F80220EB
:10168000002100F00FF80320002100F00BF80420E7
:10169000002100F007F80520002100F003F880BDCC
:1016A00000400F4080B582B000AF03463960FB7147
:1016B000FB790B4A52F83330D9B2FB79084ADB0088
:1016C00013445B68DAB23B68002B14BF012300238C
:1016D000DBB20448FFF718FF0837BD4680BD00BFE6
:1016E0004C00001000400F4080B500AF01200021E9
:1016F000C0220023FFF7D6FE01200121C0220023D3
:10170000FFF7D0FE01200221C0220023FFF7CAFE0E
:1017100001200621C0220023FFF7C4FE0748002154
:101720004FF44472002300F0F7FC044801214FF409
:101730000072002300F0F0FC80BD00BF00400F40AD
:1017400080B582B000AF78600B4A7B6852F83330C6
:101750001946094A7B68DB0013445B68DBB2074823
:101760001A46FFF7EDFE034683F00103DBB218468D
:101770000837BD4680BD00BF0C00001000400F4080
:1017800080B500AF124800F0BDFC022006214422C3
:10179000FFF770FE02200521D222FFF76BFE012029
:1017A00007214422FFF766FE094805210622FFF7BC
:1017B000E1FE0748052106220123FFF7A5FEFFF7FA
:1017C0000BFFFFF791FF0348FFF78AFE80BD00BFC4
:1017D00000400F400000014080B500AF692000F0DC
:1017E000EBFB0246014B1A6080BD00BFF0110010F8
:1017F00080B487B000AFF860B9607A603B60BB68C6
:10180000FA6802FB03F37B617A697B689A4207D32B
:101810007B69084A934203D87A693B689A4201D9A6
:1018200000237B617B6918461C37BD465DF8047B4D
:10183000704700BF00CB280C80B584B000AF0346D2
:101840000A46FB711346BB71BB79184600F052FA89
:101850000346FB73BB79184600F06CFAB860FB7B5B
:10186000184600F083FA0246BB680133B2FBF3F37B
:1018700018461037BD4680BD80B485B000AF034622
:10188000FB801C23FB730023BB6022E01B49BA686A
:1018900013465B0013445B000B441B88FA889A4292
:1018A00014D31649BA6813465B0013445B000B441B
:1018B0005B88FA889A4209D81049BA6813465B00D7
:1018C00013445B000B441B79FB7302E0BB680133DC
:1018D000BB60FB7B1C2B0AD10849BA6813465B002E
:1018E00013445B000B441B79FA7B9A42CED1FB7BFD
:1018F00018461437BD465DF8047B70477424001AFF
:1019000080B483B000AF4FF47A733B60144B9B6993
:101910007B607B6823F002037B60114B9A697B68D4
:101920009A4202D00E4A7B6893617B6823F00103E0
:101930007B600C4B1B680C4A934203D97B6843F0D5
:1019400004037B60064A7B68936100BF3B685A1EB4
:101950003A60002BFAD10C37BD465DF8047B704726
:10196000000005407024001AFF2C310180B58AB0B8
:1019700000AFB9607A603B600346FB73FB7B18469F
:1019800000F0F4F9F8617B68B3F1FF3F51D07A6859
:10199000FB69B2FBF3F37B62F869796ABA683B686A
:1019A000FFF726FFB8617B6A01337B62F869796AC9
:1019B000BA683B68FFF71CFF7861BB69002B0CD04D
:1019C0007B69002B09D17B6A013B7B62FB7B18465C
:1019D000796A00F05FF8034658E0BB69002B09D133
:1019E0007B69002B06D0FB7B1846796A00F052F821
:1019F00003464BE0BB69002B1BD07B69002B18D042
:101A00007A68BB69D21A79697B68CB1A9A4209D97C
:101A10007B6A013B7B62FB7B1846796A00F03AF8EF
:101A2000034633E0FB7B1846796A00F033F803463F
:101A30002CE0BA68FB69B2FBF3F37B623A68FB699E
:101A4000B2FBF3F33B6100233B62F869796ABA6841
:101A50003B68FFF7CDFEB861BB69002B01D07B6A04
:101A60003B627A6A3B699A4204D300BF3B6A002B0F
:101A70000BD003E07B6A01337B62E6E7FB7B184611
:101A8000396A00F007F8034600E0002318462837BB
:101A9000BD4680BD80B58AB000AF03463960FB719A
:101AA000FA23FB60FB79184600F060F9B861002367
:101AB0007B6100233B6100237B6201233B62304B4F
:101AC0005B6CFB61BB693A6802FB03F3BB613B687B
:101AD000013B7B61FB6923F0F853FB61FB791B063B
:101AE0001A46FB691343FB61FA69264B1340FB61FD
:101AF000BB69254A93421CD805E07B6A01337B62AF
:101B00003B6A5B003B623B6ABA6902FB03F35B0022
:101B10001D4A9342F1D97B691A043B691B031A439E
:101B20007B6A1B021A43FB69134343F04003FB61CA
:101B300015E0BB69154A93420DD87B691A043B69CD
:101B40001B031A437B6A1B021A43FB69134343F0CE
:101B5000C003FB6103E000F07BF800230BE0084AC0
:101B6000FB6923F00103536400BFFB685A1EFA604F
:101B7000002BFAD1BB6918462837BD4680BD00BF8F
:101B8000000005403DCC00FFFF5E4C09FFCF121363
:101B900080B58CB000AF2C4B5B6CFB62FB6A1B0EFC
:101BA000DBB203F00F03DBB2184600F0DFF8B862D7
:101BB000264A3B1D10681860234B1B6C03F0010381
:101BC000002B01D100233BE0FB6A1B0CDBB27B62E4
:101BD000FB6A1B0B03F003033B62FB6A1B0A03F067
:101BE0000303FB61FB6ADB0903F00103BB61FB6AD2
:101BF0009B0903F001037B617B6A01333B613B6A14
:101C00000133FB603A1DFB6913441B78BB60BB6961
:101C1000002B02D17B69002B07D0BA6AFB68B2FBAC
:101C2000F3F33A6902FB03F30AE0BB685B003A692D
:101C3000B2FBF3F3B96AFA68B1FBF2F202FB03F309
:101C400018463037BD4680BD00000540E024001A2C
:101C500080B400AF044A044B5B6C43F0010353644F
:101C6000BD465DF8047B70470000054080B485B038
:101C700000AF03463A60FB710B46BB711B4AFB7910
:101C8000123352F82330FB603B68013B3B60BB7969
:101C9000112B1DD0FB79164AD35C5BB29B0043F03D
:101CA000F85343F00103DB431A46FB681340FB6023
:101CB0000E48FB79BA7912061146FA6811433A6860
:101CC00092000A4342F40062123340F8232007E0F6
:101CD0000649FB79FA6842F00102123341F82320E9
:101CE0001437BD465DF8047B704700BF0000054017
:101CF000E424001A80B485B000AF0346FB710C4A9F
:101D0000FB79123352F82330FB60FB6803F00103C8
:101D1000002B01D0112305E0FB681B0EDBB203F0A2
:101D20001F03DBB218461437BD465DF8047B7047CD
:101D30000000054080B483B000AF0346FB71094A40
:101D4000FB79123352F823309B08DAB2FB7906494B
:101D5000CB5CDBB21340DBB218460C37BD465DF8F6
:101D6000047B704700000540E424001A80B584B06D
:101D700000AF0346FB710023FB60FB79112B00F2DF
:101D8000808001A252F823F0D11D001AD91D001A3B
:101D9000DF1D001AF51D001A0F1E001A831E001AFF
:101DA000171E001A1F1E001A271E001A2F1E001AC7
:101DB000831E001A831E001A371E001A451E001AC1
:101DC000531E001A611E001A6F1E001A7D1E001A93
:101DD0004FF40043FB6055E02D4BFB6052E02D4B70
:101DE000D3F82C3103F00703042B02D02A4BFB60FD
:101DF00048E047E0274BD3F82C3103F00703042BCE
:101E000002D0254BFB603DE0244BFB603AE0244BC5
:101E10001B68FB6036E0234B1B68FB6032E0224B03
:101E20001B68FB602EE0204B5B68FB602AE0FFF73D
:101E3000AFFEF86026E0FB7918460021FFF7FCFCB6
:101E4000F8601FE0FB7918460121FFF7F5FCF86008
:101E500018E0FB7918460221FFF7EEFCF86011E06C
:101E6000FB7918460321FFF7E7FCF8600AE0FB79ED
:101E700018460421FFF7E0FCF86003E00023FB6054
:101E800000E000BFFB6818461037BD4680BD00BFAC
:101E9000001BB7000030044040787D0180F0FA025A
:101EA0006C24001A7024001AE011001080B582B072
:101EB00000AF0346FB71FB79184600F057F8034664
:101EC0001846FFF753FF034618460837BD4680BD46
:101ED00090B484B000AF0446084611461A46234623
:101EE000FB710346BB710B467B7113463B711D4A68
:101EF000FB7916339B0013445B68FB60FB791B2B5B
:101F000022D8BB79112B28D0FA68174B1340FB60FD
:101F10007B79002B03D0FB6843F40063FB603B79C3
:101F2000002B03D0FB6843F00103FB60BB791B0669
:101F30001A46FB681343FB600A4AFB7916339B0081
:101F40001344FA685A6008E00649FB79FA6842F0DF
:101F5000010216339B000B445A601037BD4690BCFB
:101F6000704700BF00000540FEF7FFE080B485B079
:101F700000AF0346FB71FB791B2B01D9112313E042
:101F80000C4AFB7916339B0013445B68FB60FB68CB
:101F900003F00103002B01D0112305E0FB681B0EA9
:101FA000DBB203F01F03DBB218461437BD465DF801
:101FB000047B70470000054080B586B000AF034643
:101FC000FB80FB88B3F5A17F08D31B4AFB88A3F5F0
:101FD000A173203352F833307B6105E0174AFB8848
:101FE000203352F833307B617B6903F00103002B0F
:101FF0001BD0FB881846FFF73FFC0346FB72FB7AB9
:102000001846FFF753FFF8607B695B0903F007038D
:10201000002B02D101233B6101E002233B61FA68FE
:102020003B69B2FBF3F3FB6001E00023FB60FB685C
:1020300018461837BD4680BD0020054000100540F9
:1020400080B588B000AF72B6274B7B617B69274AA9
:102050001A607B690433264A1A60264B3B610023D1
:10206000FB6109E0FB699B003A6913444FF0FF32C2
:102070001A60FB690133FB61FB69072BF2D962B679
:1020800000F07AF81C4BBB6113E0BB691A1DBA6102
:102090001B68FB60BB691A1DBA611B68BB60BB692A
:1020A0001A1DBA611B687B60F868B9687A68FEF728
:1020B00063F8BB69114A9342E7D30DE0BB691A1D6F
:1020C000BA611B68BB60BB691A1DBA611B687B6083
:1020D000B8687968FEF772F8BB69094A9342EDD394
:1020E000FEF78AF9FEE700BF003105400010DF105F
:1020F000FFF7DF0180E200E01401001A5001001A2E
:102100007801001A80B483B000AF78600C37BD4608
:102110005DF8047B704700BF80B485B000AFF86005
:102120007A601A460B46FB721346BB72BB7A002BD1
:102130000ED0FA7AF97AFB6801F5006153F82110A4
:102140007B681943FB6802F5006243F822100EE039
:10215000FA7AF97AFB6801F5006153F821107B687F
:10216000DB431940FB6802F5006243F82210143784
:10217000BD465DF8047B704780B582B000AF064B6A
:102180007B60064A7B681A6000F0A6F800F09CF8B5
:102190000837BD4680BD00BF08ED00E00000001A12
:1021A00080B483B000AF0346FB710B46BB7113468E
:1021B000BB800648F979BB79BA8849010B4440F8DD
:1021C00023200C37BD465DF8047B70470060084053
:1021D00080B584B000AF786039600023FB6014E004
:1021E000FB689B007A6813441878FB689B007A6848
:1021F00013445978FB689B007A6813445B881A463D
:10220000FFF7CEFFFB680133FB60FA683B689A4238
:10221000E6D31037BD4680BD80B500AF044811211C
:10222000FFF7D6FF03480621FFF7D2FF80BD00BFAE
:102230001425001AFC24001A90B583B000AF0620C4
:102240001E49012200F082F81D4A1D4B5B6823F0F5
:102250000C0353601A4A1A4B5B6843F00303536044
:10226000042009210522FFF701FD0520102101228C
:102270000023FFF72DFE00237B6018E0114A7B68E6
:1022800012F823000F4A7B689B00134459780D4ACB
:102290007B689B0013449C780A4A7B689B0013442C
:1022A000DB782246FFF714FE7B6801337B607B6896
:1022B000032BE3D90C37BD4690BD00BF00CB280CE3
:1022C00000300440EC24001A80B500AFFFF7A4FFF3
:1022D000FFF7B2FF80BD00BF80B489B000AF164BDE
:1022E000FB61164BBB61164B7B610023FB74BB6922
:1022F0001B68BB607B691B687B60BB68114A9342AB
:1023000005D17B68104A934201D1012300E00023EC
:10231000FB7497F91330002B09D0FB691B68FB6035
:10232000FB6843F47003FB60FA68FB691A602437AA
:10233000BD465DF8047B704788ED00E040EF00E0AB
:1023400044EF00E0210011101100001190B585B09C
:1023500000AF03463960FB711346BB71FB79062B56
:1023600001D1FFF7CDFAFB790420194601220023A1
:10237000FFF7AEFD3B681F4A93420CD9FB79184624
:102380001D491C4A1B4BFFF7F1FA042009210122C9
:102390000023FFF79DFD194B1B68FA79104619467B
:1023A0003A683B68FFF7E2FABB79002B1ED00023A6
:1023B000FB6018E0124AFB6812F82300104AFB6821
:1023C0009B00134459780E4AFB689B0013449C7889
:1023D0000B4AFB689B001344DB782246FFF778FD2D
:1023E000FB680133FB60FB68112BE3D91437BD4652
:1023F00090BD00BF80778E06001BB7007024001AC6
:102400005825001A10B50A44441E914208D014F809
:10241000013F0878834201D0181A10BD0131F4E75A
:10242000002010BD02440346934202D003F8011B72
:10243000FAE770477461736B426C696E6B00000061
:102440007461736B50756C7361646F72000000008F
:1024500049444C4500000000A5A5A5A5A5A5A5A536
:10246000A5A5A5A5A5A5A5A5A5A5A5A500000000B0
:10247000001BB700000005000A002000240009002E
:102480004000400005006000A6000400C000C3003A
:102490000200E000E0000100000100010300200153
:1024A00020010600400140010C00420142011900D8
:1024B000620162011300820182011200A201A201E5
:1024C0001100C201C2011000E201E2010F0002028C
:1024D00002020E00220222020D00230223021C002F
:1024E00001020408030F0F0FFF00000008030100A2
:1024F000070301000B0E0100030F01010303F300AA
:102500000304F3000305F3000306F3000307F300DD
:102510000308F300010FF3000000F2000110F700C0
:102520000001B6000113F0000112B3000114B30062
:102530000111F3000200B700020B5800020C580012
:102540000300F2000600F4000702F2000602F300A6
:102550000701F2000601F300000101000909010072
:102560000A09010001070101020901000609010031
:102570000C0901010D0901000E0901000F090100FC
:1025800010090100110901001209010013090100DD
:1025900014110100191101001A1101001B11010091
:1025A000AAAAAAAAFFFFFFFFF80F00000000000080
:1025B000040000000000000008000000000000000F
:1025C00009000000010000000900000000000000F8
:1025D00000000000000000000000000000000000FB
:1025E00000000000000000000000000005000000E6
:1025F00000000000050000000100000005000000D0
:1026000002000000000000000E00000001000000B9
:102610000B000000010000000C00000000000000A2
:0C262000000000000000000000000000AE
:040000051A0020417C
:00000001FF
